{
  "contractName": "init_Voting",
  "abi": [
    {
      "inputs": [
        {
          "internalType": "string",
          "name": "_publickey",
          "type": "string"
        },
        {
          "internalType": "string",
          "name": "_eventName",
          "type": "string"
        },
        {
          "internalType": "string[]",
          "name": "_candidateInfo",
          "type": "string[]"
        },
        {
          "internalType": "uint256[]",
          "name": "_init",
          "type": "uint256[]"
        },
        {
          "internalType": "string",
          "name": "_info",
          "type": "string"
        },
        {
          "internalType": "string[]",
          "name": "_resume",
          "type": "string[]"
        }
      ],
      "stateMutability": "nonpayable",
      "type": "constructor"
    },
    {
      "anonymous": false,
      "inputs": [
        {
          "indexed": false,
          "internalType": "enum voteBase.DoneFlag",
          "name": "eventCode",
          "type": "uint8"
        },
        {
          "indexed": false,
          "internalType": "string",
          "name": "message",
          "type": "string"
        }
      ],
      "name": "done",
      "type": "event"
    },
    {
      "anonymous": false,
      "inputs": [
        {
          "indexed": false,
          "internalType": "enum voteBase.DoneFlag",
          "name": "eventCode",
          "type": "uint8"
        },
        {
          "indexed": false,
          "internalType": "string",
          "name": "message",
          "type": "string"
        }
      ],
      "name": "privateKey",
      "type": "event"
    },
    {
      "anonymous": false,
      "inputs": [
        {
          "indexed": false,
          "internalType": "enum voteBase.DoneFlag",
          "name": "eventCode",
          "type": "uint8"
        },
        {
          "indexed": false,
          "internalType": "string",
          "name": "message",
          "type": "string"
        }
      ],
      "name": "valid",
      "type": "event"
    },
    {
      "anonymous": false,
      "inputs": [
        {
          "indexed": true,
          "internalType": "uint256",
          "name": "_candidateId",
          "type": "uint256"
        }
      ],
      "name": "votedEvent",
      "type": "event"
    },
    {
      "inputs": [],
      "name": "CurrentTime",
      "outputs": [
        {
          "internalType": "uint256",
          "name": "",
          "type": "uint256"
        }
      ],
      "stateMutability": "view",
      "type": "function",
      "constant": true
    },
    {
      "inputs": [],
      "name": "FirstCandidates",
      "outputs": [
        {
          "internalType": "uint256",
          "name": "id",
          "type": "uint256"
        },
        {
          "internalType": "string",
          "name": "name",
          "type": "string"
        },
        {
          "internalType": "uint256",
          "name": "voteCount",
          "type": "uint256"
        },
        {
          "internalType": "string",
          "name": "info",
          "type": "string"
        }
      ],
      "stateMutability": "view",
      "type": "function",
      "constant": true
    },
    {
      "inputs": [],
      "name": "candidatesCount",
      "outputs": [
        {
          "internalType": "uint256",
          "name": "",
          "type": "uint256"
        }
      ],
      "stateMutability": "view",
      "type": "function",
      "constant": true
    },
    {
      "inputs": [
        {
          "internalType": "uint256",
          "name": "",
          "type": "uint256"
        }
      ],
      "name": "candidatesList",
      "outputs": [
        {
          "internalType": "uint256",
          "name": "id",
          "type": "uint256"
        },
        {
          "internalType": "string",
          "name": "name",
          "type": "string"
        },
        {
          "internalType": "uint256",
          "name": "voteCount",
          "type": "uint256"
        },
        {
          "internalType": "string",
          "name": "info",
          "type": "string"
        }
      ],
      "stateMutability": "view",
      "type": "function",
      "constant": true
    },
    {
      "inputs": [],
      "name": "eventName",
      "outputs": [
        {
          "internalType": "string",
          "name": "",
          "type": "string"
        }
      ],
      "stateMutability": "view",
      "type": "function",
      "constant": true
    },
    {
      "inputs": [],
      "name": "info",
      "outputs": [
        {
          "internalType": "string",
          "name": "",
          "type": "string"
        }
      ],
      "stateMutability": "view",
      "type": "function",
      "constant": true
    },
    {
      "inputs": [],
      "name": "max",
      "outputs": [
        {
          "internalType": "uint256",
          "name": "",
          "type": "uint256"
        }
      ],
      "stateMutability": "view",
      "type": "function",
      "constant": true
    },
    {
      "inputs": [],
      "name": "maxnum",
      "outputs": [
        {
          "internalType": "uint256",
          "name": "",
          "type": "uint256"
        }
      ],
      "stateMutability": "view",
      "type": "function",
      "constant": true
    },
    {
      "inputs": [],
      "name": "number",
      "outputs": [
        {
          "internalType": "uint256",
          "name": "",
          "type": "uint256"
        }
      ],
      "stateMutability": "view",
      "type": "function",
      "constant": true
    },
    {
      "inputs": [],
      "name": "publickey",
      "outputs": [
        {
          "internalType": "string",
          "name": "",
          "type": "string"
        }
      ],
      "stateMutability": "view",
      "type": "function",
      "constant": true
    },
    {
      "inputs": [],
      "name": "revaddress",
      "outputs": [
        {
          "internalType": "address",
          "name": "",
          "type": "address"
        }
      ],
      "stateMutability": "view",
      "type": "function",
      "constant": true
    },
    {
      "inputs": [
        {
          "internalType": "address",
          "name": "",
          "type": "address"
        }
      ],
      "name": "revoteciphertext",
      "outputs": [
        {
          "internalType": "string",
          "name": "",
          "type": "string"
        }
      ],
      "stateMutability": "view",
      "type": "function",
      "constant": true
    },
    {
      "inputs": [
        {
          "internalType": "address",
          "name": "",
          "type": "address"
        }
      ],
      "name": "revoters",
      "outputs": [
        {
          "internalType": "int256",
          "name": "",
          "type": "int256"
        }
      ],
      "stateMutability": "view",
      "type": "function",
      "constant": true
    },
    {
      "inputs": [],
      "name": "revotingEndTime",
      "outputs": [
        {
          "internalType": "uint256",
          "name": "year",
          "type": "uint256"
        },
        {
          "internalType": "uint256",
          "name": "month",
          "type": "uint256"
        },
        {
          "internalType": "uint256",
          "name": "date",
          "type": "uint256"
        },
        {
          "internalType": "uint256",
          "name": "hour",
          "type": "uint256"
        },
        {
          "internalType": "uint256",
          "name": "min",
          "type": "uint256"
        },
        {
          "internalType": "uint256",
          "name": "sec",
          "type": "uint256"
        }
      ],
      "stateMutability": "view",
      "type": "function",
      "constant": true
    },
    {
      "inputs": [],
      "name": "revotingStartTime",
      "outputs": [
        {
          "internalType": "uint256",
          "name": "year",
          "type": "uint256"
        },
        {
          "internalType": "uint256",
          "name": "month",
          "type": "uint256"
        },
        {
          "internalType": "uint256",
          "name": "date",
          "type": "uint256"
        },
        {
          "internalType": "uint256",
          "name": "hour",
          "type": "uint256"
        },
        {
          "internalType": "uint256",
          "name": "min",
          "type": "uint256"
        },
        {
          "internalType": "uint256",
          "name": "sec",
          "type": "uint256"
        }
      ],
      "stateMutability": "view",
      "type": "function",
      "constant": true
    },
    {
      "inputs": [],
      "name": "senaddress",
      "outputs": [
        {
          "internalType": "address",
          "name": "",
          "type": "address"
        }
      ],
      "stateMutability": "view",
      "type": "function",
      "constant": true
    },
    {
      "inputs": [],
      "name": "totalnum",
      "outputs": [
        {
          "internalType": "uint256",
          "name": "",
          "type": "uint256"
        }
      ],
      "stateMutability": "view",
      "type": "function",
      "constant": true
    },
    {
      "inputs": [
        {
          "internalType": "address",
          "name": "",
          "type": "address"
        }
      ],
      "name": "voteciphertext",
      "outputs": [
        {
          "internalType": "string",
          "name": "",
          "type": "string"
        }
      ],
      "stateMutability": "view",
      "type": "function",
      "constant": true
    },
    {
      "inputs": [
        {
          "internalType": "address",
          "name": "",
          "type": "address"
        }
      ],
      "name": "votefor",
      "outputs": [
        {
          "internalType": "int256",
          "name": "",
          "type": "int256"
        }
      ],
      "stateMutability": "view",
      "type": "function",
      "constant": true
    },
    {
      "inputs": [
        {
          "internalType": "address",
          "name": "",
          "type": "address"
        }
      ],
      "name": "voters",
      "outputs": [
        {
          "internalType": "int256",
          "name": "",
          "type": "int256"
        }
      ],
      "stateMutability": "view",
      "type": "function",
      "constant": true
    },
    {
      "inputs": [],
      "name": "votingEndTime",
      "outputs": [
        {
          "internalType": "uint256",
          "name": "year",
          "type": "uint256"
        },
        {
          "internalType": "uint256",
          "name": "month",
          "type": "uint256"
        },
        {
          "internalType": "uint256",
          "name": "date",
          "type": "uint256"
        },
        {
          "internalType": "uint256",
          "name": "hour",
          "type": "uint256"
        },
        {
          "internalType": "uint256",
          "name": "min",
          "type": "uint256"
        },
        {
          "internalType": "uint256",
          "name": "sec",
          "type": "uint256"
        }
      ],
      "stateMutability": "view",
      "type": "function",
      "constant": true
    },
    {
      "inputs": [],
      "name": "votingStartTime",
      "outputs": [
        {
          "internalType": "uint256",
          "name": "year",
          "type": "uint256"
        },
        {
          "internalType": "uint256",
          "name": "month",
          "type": "uint256"
        },
        {
          "internalType": "uint256",
          "name": "date",
          "type": "uint256"
        },
        {
          "internalType": "uint256",
          "name": "hour",
          "type": "uint256"
        },
        {
          "internalType": "uint256",
          "name": "min",
          "type": "uint256"
        },
        {
          "internalType": "uint256",
          "name": "sec",
          "type": "uint256"
        }
      ],
      "stateMutability": "view",
      "type": "function",
      "constant": true
    },
    {
      "inputs": [],
      "name": "getPublickey",
      "outputs": [
        {
          "internalType": "string",
          "name": "",
          "type": "string"
        }
      ],
      "stateMutability": "view",
      "type": "function",
      "constant": true
    },
    {
      "inputs": [],
      "name": "getEventName",
      "outputs": [
        {
          "internalType": "string",
          "name": "",
          "type": "string"
        }
      ],
      "stateMutability": "view",
      "type": "function",
      "constant": true
    },
    {
      "inputs": [],
      "name": "getvote",
      "outputs": [
        {
          "internalType": "int256",
          "name": "",
          "type": "int256"
        }
      ],
      "stateMutability": "view",
      "type": "function",
      "constant": true
    },
    {
      "inputs": [],
      "name": "getrevote",
      "outputs": [
        {
          "internalType": "int256",
          "name": "",
          "type": "int256"
        }
      ],
      "stateMutability": "view",
      "type": "function",
      "constant": true
    },
    {
      "inputs": [],
      "name": "getvotefor",
      "outputs": [
        {
          "internalType": "int256",
          "name": "",
          "type": "int256"
        }
      ],
      "stateMutability": "view",
      "type": "function",
      "constant": true
    },
    {
      "inputs": [],
      "name": "getVoteCiphertext",
      "outputs": [
        {
          "internalType": "string",
          "name": "",
          "type": "string"
        }
      ],
      "stateMutability": "view",
      "type": "function",
      "constant": true
    },
    {
      "inputs": [],
      "name": "getsender",
      "outputs": [
        {
          "internalType": "address",
          "name": "",
          "type": "address"
        }
      ],
      "stateMutability": "view",
      "type": "function",
      "constant": true
    },
    {
      "inputs": [],
      "name": "getRevoteCiphertext",
      "outputs": [
        {
          "internalType": "string",
          "name": "",
          "type": "string"
        }
      ],
      "stateMutability": "view",
      "type": "function",
      "constant": true
    },
    {
      "inputs": [
        {
          "internalType": "string",
          "name": "key",
          "type": "string"
        }
      ],
      "name": "getPrivatekey",
      "outputs": [],
      "stateMutability": "nonpayable",
      "type": "function"
    },
    {
      "inputs": [],
      "name": "getpkey",
      "outputs": [
        {
          "internalType": "string",
          "name": "",
          "type": "string"
        }
      ],
      "stateMutability": "view",
      "type": "function",
      "constant": true
    },
    {
      "inputs": [],
      "name": "getvoteforname",
      "outputs": [
        {
          "internalType": "string",
          "name": "",
          "type": "string"
        }
      ],
      "stateMutability": "view",
      "type": "function",
      "constant": true
    },
    {
      "inputs": [],
      "name": "gettimealready",
      "outputs": [
        {
          "internalType": "int256",
          "name": "",
          "type": "int256"
        }
      ],
      "stateMutability": "view",
      "type": "function",
      "constant": true
    },
    {
      "inputs": [],
      "name": "gettimeend",
      "outputs": [
        {
          "internalType": "int256",
          "name": "",
          "type": "int256"
        }
      ],
      "stateMutability": "view",
      "type": "function",
      "constant": true
    },
    {
      "inputs": [],
      "name": "regettimealready",
      "outputs": [
        {
          "internalType": "int256",
          "name": "",
          "type": "int256"
        }
      ],
      "stateMutability": "view",
      "type": "function",
      "constant": true
    },
    {
      "inputs": [],
      "name": "regettimeend",
      "outputs": [
        {
          "internalType": "int256",
          "name": "",
          "type": "int256"
        }
      ],
      "stateMutability": "view",
      "type": "function",
      "constant": true
    },
    {
      "inputs": [
        {
          "internalType": "uint256",
          "name": "_candidateId",
          "type": "uint256"
        }
      ],
      "name": "getTotalVotes",
      "outputs": [
        {
          "internalType": "uint256",
          "name": "",
          "type": "uint256"
        }
      ],
      "stateMutability": "view",
      "type": "function",
      "constant": true
    },
    {
      "inputs": [],
      "name": "getstartTime",
      "outputs": [
        {
          "internalType": "uint256",
          "name": "",
          "type": "uint256"
        },
        {
          "internalType": "uint256",
          "name": "",
          "type": "uint256"
        },
        {
          "internalType": "uint256",
          "name": "",
          "type": "uint256"
        },
        {
          "internalType": "uint256",
          "name": "",
          "type": "uint256"
        },
        {
          "internalType": "uint256",
          "name": "",
          "type": "uint256"
        },
        {
          "internalType": "uint256",
          "name": "",
          "type": "uint256"
        }
      ],
      "stateMutability": "view",
      "type": "function",
      "constant": true
    },
    {
      "inputs": [],
      "name": "getendTime",
      "outputs": [
        {
          "internalType": "uint256",
          "name": "",
          "type": "uint256"
        },
        {
          "internalType": "uint256",
          "name": "",
          "type": "uint256"
        },
        {
          "internalType": "uint256",
          "name": "",
          "type": "uint256"
        },
        {
          "internalType": "uint256",
          "name": "",
          "type": "uint256"
        },
        {
          "internalType": "uint256",
          "name": "",
          "type": "uint256"
        },
        {
          "internalType": "uint256",
          "name": "",
          "type": "uint256"
        }
      ],
      "stateMutability": "view",
      "type": "function",
      "constant": true
    },
    {
      "inputs": [],
      "name": "getrestartTime",
      "outputs": [
        {
          "internalType": "uint256",
          "name": "",
          "type": "uint256"
        },
        {
          "internalType": "uint256",
          "name": "",
          "type": "uint256"
        },
        {
          "internalType": "uint256",
          "name": "",
          "type": "uint256"
        },
        {
          "internalType": "uint256",
          "name": "",
          "type": "uint256"
        },
        {
          "internalType": "uint256",
          "name": "",
          "type": "uint256"
        },
        {
          "internalType": "uint256",
          "name": "",
          "type": "uint256"
        }
      ],
      "stateMutability": "view",
      "type": "function",
      "constant": true
    },
    {
      "inputs": [],
      "name": "getreendTime",
      "outputs": [
        {
          "internalType": "uint256",
          "name": "",
          "type": "uint256"
        },
        {
          "internalType": "uint256",
          "name": "",
          "type": "uint256"
        },
        {
          "internalType": "uint256",
          "name": "",
          "type": "uint256"
        },
        {
          "internalType": "uint256",
          "name": "",
          "type": "uint256"
        },
        {
          "internalType": "uint256",
          "name": "",
          "type": "uint256"
        },
        {
          "internalType": "uint256",
          "name": "",
          "type": "uint256"
        }
      ],
      "stateMutability": "view",
      "type": "function",
      "constant": true
    },
    {
      "inputs": [],
      "name": "getCandidatesName",
      "outputs": [
        {
          "internalType": "string",
          "name": "",
          "type": "string"
        },
        {
          "internalType": "string",
          "name": "",
          "type": "string"
        },
        {
          "internalType": "string",
          "name": "",
          "type": "string"
        }
      ],
      "stateMutability": "view",
      "type": "function",
      "constant": true
    },
    {
      "inputs": [],
      "name": "getinfo",
      "outputs": [
        {
          "internalType": "string",
          "name": "",
          "type": "string"
        }
      ],
      "stateMutability": "view",
      "type": "function",
      "constant": true
    },
    {
      "inputs": [],
      "name": "getresume",
      "outputs": [
        {
          "internalType": "string",
          "name": "",
          "type": "string"
        },
        {
          "internalType": "string",
          "name": "",
          "type": "string"
        },
        {
          "internalType": "string",
          "name": "",
          "type": "string"
        }
      ],
      "stateMutability": "view",
      "type": "function",
      "constant": true
    },
    {
      "inputs": [
        {
          "internalType": "uint256",
          "name": "num",
          "type": "uint256"
        }
      ],
      "name": "getnumber",
      "outputs": [],
      "stateMutability": "nonpayable",
      "type": "function"
    },
    {
      "inputs": [
        {
          "internalType": "uint256",
          "name": "m",
          "type": "uint256"
        },
        {
          "internalType": "uint256",
          "name": "mt",
          "type": "uint256"
        }
      ],
      "name": "tomax",
      "outputs": [],
      "stateMutability": "nonpayable",
      "type": "function"
    },
    {
      "inputs": [],
      "name": "getresult",
      "outputs": [
        {
          "internalType": "string",
          "name": "",
          "type": "string"
        },
        {
          "internalType": "uint256",
          "name": "",
          "type": "uint256"
        }
      ],
      "stateMutability": "view",
      "type": "function",
      "constant": true
    },
    {
      "inputs": [],
      "name": "getnum",
      "outputs": [
        {
          "internalType": "uint256",
          "name": "",
          "type": "uint256"
        }
      ],
      "stateMutability": "view",
      "type": "function",
      "constant": true
    },
    {
      "inputs": [],
      "name": "getname",
      "outputs": [
        {
          "internalType": "string",
          "name": "",
          "type": "string"
        }
      ],
      "stateMutability": "view",
      "type": "function",
      "constant": true
    },
    {
      "inputs": [
        {
          "internalType": "uint256",
          "name": "num",
          "type": "uint256"
        }
      ],
      "name": "getname1",
      "outputs": [
        {
          "internalType": "string",
          "name": "",
          "type": "string"
        }
      ],
      "stateMutability": "view",
      "type": "function",
      "constant": true
    },
    {
      "inputs": [],
      "name": "gettotalpeo",
      "outputs": [
        {
          "internalType": "uint256",
          "name": "",
          "type": "uint256"
        }
      ],
      "stateMutability": "view",
      "type": "function",
      "constant": true
    },
    {
      "inputs": [
        {
          "internalType": "string",
          "name": "c",
          "type": "string"
        }
      ],
      "name": "callsha256",
      "outputs": [
        {
          "internalType": "string",
          "name": "",
          "type": "string"
        }
      ],
      "stateMutability": "pure",
      "type": "function",
      "constant": true
    },
    {
      "inputs": [
        {
          "internalType": "uint256",
          "name": "i",
          "type": "uint256"
        }
      ],
      "name": "getvalid",
      "outputs": [
        {
          "internalType": "string",
          "name": "",
          "type": "string"
        }
      ],
      "stateMutability": "view",
      "type": "function",
      "constant": true
    },
    {
      "inputs": [
        {
          "internalType": "bytes32",
          "name": "data",
          "type": "bytes32"
        }
      ],
      "name": "toHex",
      "outputs": [
        {
          "internalType": "string",
          "name": "",
          "type": "string"
        }
      ],
      "stateMutability": "pure",
      "type": "function",
      "constant": true
    },
    {
      "inputs": [],
      "name": "equal1",
      "outputs": [
        {
          "internalType": "bool",
          "name": "",
          "type": "bool"
        }
      ],
      "stateMutability": "view",
      "type": "function",
      "constant": true
    },
    {
      "inputs": [
        {
          "internalType": "string",
          "name": "a",
          "type": "string"
        },
        {
          "internalType": "string",
          "name": "b",
          "type": "string"
        }
      ],
      "name": "hashCompareInternal1",
      "outputs": [
        {
          "internalType": "bool",
          "name": "",
          "type": "bool"
        }
      ],
      "stateMutability": "pure",
      "type": "function",
      "constant": true
    },
    {
      "inputs": [
        {
          "internalType": "string",
          "name": "_ciphertext",
          "type": "string"
        }
      ],
      "name": "vote",
      "outputs": [],
      "stateMutability": "nonpayable",
      "type": "function"
    },
    {
      "inputs": [
        {
          "internalType": "string",
          "name": "_reciphertext",
          "type": "string"
        }
      ],
      "name": "revote",
      "outputs": [],
      "stateMutability": "nonpayable",
      "type": "function"
    }
  ],
  "bytecode": "0x6080604052426027553480156200001557600080fd5b50604051620055c1380380620055c183398181016040528101906200003b919062000ade565b858585858585336000806101000a81548173ffffffffffffffffffffffffffffffffffffffff021916908373ffffffffffffffffffffffffffffffffffffffff16021790555084601d908162000092919062000e75565b5085601e9081620000a4919062000e75565b5081601f9081620000b6919062000e75565b5060405180608001604052806001815260200185600081518110620000e057620000df62000f5c565b5b6020026020010151815260200160008152602001826000815181106200010b576200010a62000f5c565b5b6020026020010151815250600160008201518160000155602082015181600101908162000139919062000e75565b506040820151816002015560608201518160030190816200015b919062000e75565b509050506040518060c001604052808460008151811062000181576200018062000f5c565b5b6020026020010151815260200184600181518110620001a557620001a462000f5c565b5b6020026020010151815260200184600281518110620001c957620001c862000f5c565b5b6020026020010151815260200184600381518110620001ed57620001ec62000f5c565b5b602002602001015181526020018460048151811062000211576200021062000f5c565b5b602002602001015181526020018460058151811062000235576200023462000f5c565b5b60200260200101518152506005600082015181600001556020820151816001015560408201518160020155606082015181600301556080820151816004015560a082015181600501559050506040518060c0016040528084600081518110620002a357620002a262000f5c565b5b6020026020010151815260200184600681518110620002c757620002c662000f5c565b5b6020026020010151815260200184600781518110620002eb57620002ea62000f5c565b5b60200260200101518152602001846008815181106200030f576200030e62000f5c565b5b602002602001015181526020018460098151811062000333576200033262000f5c565b5b6020026020010151815260200184600a8151811062000357576200035662000f5c565b5b6020026020010151815250600b600082015181600001556020820151816001015560408201518160020155606082015181600301556080820151816004015560a082015181600501559050506040518060c0016040528084600081518110620003c557620003c462000f5c565b5b6020026020010151815260200184600b81518110620003e957620003e862000f5c565b5b6020026020010151815260200184600c815181106200040d576200040c62000f5c565b5b6020026020010151815260200184600d8151811062000431576200043062000f5c565b5b6020026020010151815260200184600e8151811062000455576200045462000f5c565b5b6020026020010151815260200184600f8151811062000479576200047862000f5c565b5b60200260200101518152506011600082015181600001556020820151816001015560408201518160020155606082015181600301556080820151816004015560a082015181600501559050506040518060c0016040528084600081518110620004e757620004e662000f5c565b5b60200260200101518152602001846010815181106200050b576200050a62000f5c565b5b60200260200101518152602001846011815181106200052f576200052e62000f5c565b5b602002602001015181526020018460128151811062000553576200055262000f5c565b5b602002602001015181526020018460138151811062000577576200057662000f5c565b5b60200260200101518152602001846014815181106200059b576200059a62000f5c565b5b60200260200101518152506017600082015181600001556020820151816001015560408201518160020155606082015181600301556080820151816004015560a0820151816005015590505050505050505083516028819055506000600190505b84518111620007275760405180608001604052808281526020018660018462000626919062000fba565b815181106200063a576200063962000f5c565b5b6020026020010151815260200160008152602001836001846200065e919062000fba565b8151811062000672576200067162000f5c565b5b602002602001015181525060206000838152602001908152602001600020600082015181600001556020820151816001019081620006b1919062000e75565b50604082015181600201556060820151816003019081620006d3919062000e75565b509050507f26aaa12d2ac51334f2a0f54ee45add899f031d9163d6c3254931cb616a6ddfd66000604051620007099190620010d6565b60405180910390a180806200071e9062001108565b915050620005fc565b5050505050505062001155565b6000604051905090565b600080fd5b600080fd5b600080fd5b600080fd5b6000601f19601f8301169050919050565b7f4e487b7100000000000000000000000000000000000000000000000000000000600052604160045260246000fd5b6200079d8262000752565b810181811067ffffffffffffffff82111715620007bf57620007be62000763565b5b80604052505050565b6000620007d462000734565b9050620007e2828262000792565b919050565b600067ffffffffffffffff82111562000805576200080462000763565b5b620008108262000752565b9050602081019050919050565b60005b838110156200083d57808201518184015260208101905062000820565b838111156200084d576000848401525b50505050565b60006200086a6200086484620007e7565b620007c8565b9050828152602081018484840111156200088957620008886200074d565b5b620008968482856200081d565b509392505050565b600082601f830112620008b657620008b562000748565b5b8151620008c884826020860162000853565b91505092915050565b600067ffffffffffffffff821115620008ef57620008ee62000763565b5b602082029050602081019050919050565b600080fd5b60006200091c6200091684620008d1565b620007c8565b9050808382526020820190506020840283018581111562000942576200094162000900565b5b835b818110156200099057805167ffffffffffffffff8111156200096b576200096a62000748565b5b8086016200097a89826200089e565b8552602085019450505060208101905062000944565b5050509392505050565b600082601f830112620009b257620009b162000748565b5b8151620009c484826020860162000905565b91505092915050565b600067ffffffffffffffff821115620009eb57620009ea62000763565b5b602082029050602081019050919050565b6000819050919050565b62000a1181620009fc565b811462000a1d57600080fd5b50565b60008151905062000a318162000a06565b92915050565b600062000a4e62000a4884620009cd565b620007c8565b9050808382526020820190506020840283018581111562000a745762000a7362000900565b5b835b8181101562000aa1578062000a8c888262000a20565b84526020840193505060208101905062000a76565b5050509392505050565b600082601f83011262000ac35762000ac262000748565b5b815162000ad584826020860162000a37565b91505092915050565b60008060008060008060c0878903121562000afe5762000afd6200073e565b5b600087015167ffffffffffffffff81111562000b1f5762000b1e62000743565b5b62000b2d89828a016200089e565b965050602087015167ffffffffffffffff81111562000b515762000b5062000743565b5b62000b5f89828a016200089e565b955050604087015167ffffffffffffffff81111562000b835762000b8262000743565b5b62000b9189828a016200099a565b945050606087015167ffffffffffffffff81111562000bb55762000bb462000743565b5b62000bc389828a0162000aab565b935050608087015167ffffffffffffffff81111562000be75762000be662000743565b5b62000bf589828a016200089e565b92505060a087015167ffffffffffffffff81111562000c195762000c1862000743565b5b62000c2789828a016200099a565b9150509295509295509295565b600081519050919050565b7f4e487b7100000000000000000000000000000000000000000000000000000000600052602260045260246000fd5b6000600282049050600182168062000c8757607f821691505b60208210810362000c9d5762000c9c62000c3f565b5b50919050565b60008190508160005260206000209050919050565b60006020601f8301049050919050565b600082821b905092915050565b60006008830262000d077fffffffffffffffffffffffffffffffffffffffffffffffffffffffffffffffff8262000cc8565b62000d13868362000cc8565b95508019841693508086168417925050509392505050565b6000819050919050565b600062000d5662000d5062000d4a84620009fc565b62000d2b565b620009fc565b9050919050565b6000819050919050565b62000d728362000d35565b62000d8a62000d818262000d5d565b84845462000cd5565b825550505050565b600090565b62000da162000d92565b62000dae81848462000d67565b505050565b5b8181101562000dd65762000dca60008262000d97565b60018101905062000db4565b5050565b601f82111562000e255762000def8162000ca3565b62000dfa8462000cb8565b8101602085101562000e0a578190505b62000e2262000e198562000cb8565b83018262000db3565b50505b505050565b600082821c905092915050565b600062000e4a6000198460080262000e2a565b1980831691505092915050565b600062000e65838362000e37565b9150826002028217905092915050565b62000e808262000c34565b67ffffffffffffffff81111562000e9c5762000e9b62000763565b5b62000ea8825462000c6e565b62000eb582828562000dda565b600060209050601f83116001811462000eed576000841562000ed8578287015190505b62000ee4858262000e57565b86555062000f54565b601f19841662000efd8662000ca3565b60005b8281101562000f275784890151825560018201915060208501945060208101905062000f00565b8683101562000f47578489015162000f43601f89168262000e37565b8355505b6001600288020188555050505b505050505050565b7f4e487b7100000000000000000000000000000000000000000000000000000000600052603260045260246000fd5b7f4e487b7100000000000000000000000000000000000000000000000000000000600052601160045260246000fd5b600062000fc782620009fc565b915062000fd483620009fc565b92508282101562000fea5762000fe962000f8b565b5b828203905092915050565b7f4e487b7100000000000000000000000000000000000000000000000000000000600052602160045260246000fd5b6007811062001038576200103762000ff5565b5b50565b60008190506200104b8262001024565b919050565b60006200105d826200103b565b9050919050565b6200106f8162001050565b82525050565b600082825260208201905092915050565b7f5365742043616e64696461746573000000000000000000000000000000000000600082015250565b6000620010be600e8362001075565b9150620010cb8262001086565b602082019050919050565b6000604082019050620010ed600083018462001064565b81810360208301526200110081620010af565b905092915050565b60006200111582620009fc565b91507fffffffffffffffffffffffffffffffffffffffffffffffffffffffffffffffff82036200114a576200114962000f8b565b5b600182019050919050565b61445c80620011656000396000f3fe608060405234801561001057600080fd5b50600436106103995760003560e01c80638cb96fc9116101e9578063be12c8871161010f578063d80e8700116100ad578063e1ed84b71161007c578063e1ed84b714610b13578063f0fa631114610b31578063f65c9a6914610b4f578063fc36e15b14610b6d57610399565b8063d80e870014610a74578063daeb3d0f14610a92578063ddfbfead14610ac2578063df2d5ec714610ae057610399565b8063c6ea59b9116100e9578063c6ea59b9146109fc578063d0158e2b14610a1a578063d1dd5fcb14610a38578063d4c1115214610a5657610399565b8063be12c8871461099d578063bfcd2459146109c0578063c5c60cfb146109de57610399565b80639e0790bd11610187578063b4cfa35e11610156578063b4cfa35e14610922578063b81e43fc14610945578063b87493aa14610963578063b9839b0c1461097f57610399565b80639e0790bd14610881578063a0f5807d146108a4578063a3ec138d146108c2578063aa698c03146108f257610399565b806393b3f51d116101c357806393b3f51d146107e057806397ef299e146108105780639ab832be146108405780639d7482c21461086357610399565b80638cb96fc9146107865780638d340cc8146107a25780638dac1d75146107c057610399565b806340fc0502116102ce57806372c1f95c1161026c57806383612e141161023b57806383612e14146106e55780638381f58a146107155780638a72dd23146107335780638b45a70a1461075657610399565b806372c1f95c1461066d5780637d3688731461068b5780637fb50278146106a95780638043c9c0146106c757610399565b80635cef03fb116102a85780635cef03fb146105f25780635d848ca814610610578063624ab20a146106335780636ac5db191461064f57610399565b806340fc05021461057357806349e894d8146105925780634c3b7af9146105c257610399565b80632019a6081161033b5780632d35a8a2116103155780632d35a8a2146104fb57806331fc9ec314610519578063370158ea146105395780633c2489f51461055757610399565b80632019a6081461048a57806320a24f24146104ad5780632ce35e11146104cb57610399565b80631200098c116103775780631200098c1461040d5780631a2d86291461042b5780631b854067146104495780631ea736e01461046757610399565b806306f326011461039e5780630943ae1c146103ce5780630caf270e146103ec575b600080fd5b6103b860048036038101906103b391906131db565b610b89565b6040516103c59190613221565b60405180910390f35b6103d6610ba1565b6040516103e3919061324b565b60405180910390f35b6103f4610bc7565b6040516104049493929190613318565b60405180910390f35b610415610cf5565b604051610422919061336b565b60405180910390f35b610433610d87565b604051610440919061336b565b60405180910390f35b610451610e19565b60405161045e919061336b565b60405180910390f35b61046f610eab565b6040516104819695949392919061338d565b60405180910390f35b610492610ed5565b6040516104a49695949392919061338d565b60405180910390f35b6104b5610eff565b6040516104c29190613221565b60405180910390f35b6104e560048036038101906104e0919061341a565b610f80565b6040516104f29190613447565b60405180910390f35b610503610fa0565b6040516105109190613447565b60405180910390f35b610521610fa6565b60405161053093929190613462565b60405180910390f35b61054161119f565b60405161054e919061336b565b60405180910390f35b610571600480360381019061056c91906135e3565b61122d565b005b61057b6117d8565b60405161058992919061362c565b60405180910390f35b6105ac60048036038101906105a79190613692565b61188b565b6040516105b9919061336b565b60405180910390f35b6105dc60048036038101906105d7919061341a565b6118ca565b6040516105e9919061336b565b60405180910390f35b6105fa61197a565b6040516106079190613221565b60405180910390f35b6106186119fb565b60405161062a9695949392919061338d565b60405180910390f35b61064d600480360381019061064891906136bf565b611a3c565b005b610657611a4e565b6040516106649190613447565b60405180910390f35b610675611a54565b604051610682919061336b565b60405180910390f35b610693611b39565b6040516106a09190613447565b60405180910390f35b6106b1611b43565b6040516106be9190613447565b60405180910390f35b6106cf611b49565b6040516106dc919061336b565b60405180910390f35b6106ff60048036038101906106fa919061341a565b611bd7565b60405161070c919061336b565b60405180910390f35b61071d611c7f565b60405161072a9190613447565b60405180910390f35b61073b611c85565b60405161074d9695949392919061338d565b60405180910390f35b610770600480360381019061076b91906135e3565b611caf565b60405161077d919061336b565b60405180910390f35b6107a0600480360381019061079b91906135e3565b611d2f565b005b6107aa611d7a565b6040516107b79190613221565b60405180910390f35b6107c8611dfb565b6040516107d793929190613462565b60405180910390f35b6107fa60048036038101906107f591906131db565b611ff4565b604051610807919061336b565b60405180910390f35b61082a600480360381019061082591906131db565b612094565b604051610837919061336b565b60405180910390f35b610848612134565b60405161085a9695949392919061338d565b60405180910390f35b61086b61215e565b6040516108789190613447565b60405180910390f35b61088961216b565b60405161089b9695949392919061338d565b60405180910390f35b6108ac6121ab565b6040516108b9919061336b565b60405180910390f35b6108dc60048036038101906108d791906131db565b612239565b6040516108e99190613221565b60405180910390f35b61090c600480360381019061090791906136ff565b612251565b6040516109199190613792565b60405180910390f35b61092a6122ba565b60405161093c9695949392919061338d565b60405180910390f35b61094d6122fb565b60405161095a919061336b565b60405180910390f35b61097d6004803603810190610978919061341a565b61238d565b005b610987612397565b604051610994919061324b565b60405180910390f35b6109a56123bd565b6040516109b79695949392919061338d565b60405180910390f35b6109c86123fe565b6040516109d59190613221565b60405180910390f35b6109e6612445565b6040516109f3919061336b565b60405180910390f35b610a04612514565b604051610a11919061336b565b60405180910390f35b610a226125bc565b604051610a2f919061324b565b60405180910390f35b610a406125c4565b604051610a4d9190613221565b60405180910390f35b610a5e612645565b604051610a6b9190613447565b60405180910390f35b610a7c61264b565b604051610a899190613447565b60405180910390f35b610aac6004803603810190610aa791906131db565b612651565b604051610ab99190613221565b60405180910390f35b610aca612669565b604051610ad79190613221565b60405180910390f35b610afa6004803603810190610af5919061341a565b6126b0565b604051610b0a9493929190613318565b60405180910390f35b610b1b6127ef565b604051610b289190613221565b60405180910390f35b610b39612836565b604051610b46919061336b565b60405180910390f35b610b57612905565b604051610b649190613792565b60405180910390f35b610b876004803603810190610b8291906135e3565b612ac3565b005b60226020528060005260406000206000915090505481565b602d60009054906101000a900473ffffffffffffffffffffffffffffffffffffffff1681565b6001806000015490806001018054610bde906137dc565b80601f0160208091040260200160405190810160405280929190818152602001828054610c0a906137dc565b8015610c575780601f10610c2c57610100808354040283529160200191610c57565b820191906000526020600020905b815481529060010190602001808311610c3a57829003601f168201915b505050505090806002015490806003018054610c72906137dc565b80601f0160208091040260200160405190810160405280929190818152602001828054610c9e906137dc565b8015610ceb5780601f10610cc057610100808354040283529160200191610ceb565b820191906000526020600020905b815481529060010190602001808311610cce57829003601f168201915b5050505050905084565b6060602f8054610d04906137dc565b80601f0160208091040260200160405190810160405280929190818152602001828054610d30906137dc565b8015610d7d5780601f10610d5257610100808354040283529160200191610d7d565b820191906000526020600020905b815481529060010190602001808311610d6057829003601f168201915b5050505050905090565b6060601f8054610d96906137dc565b80601f0160208091040260200160405190810160405280929190818152602001828054610dc2906137dc565b8015610e0f5780601f10610de457610100808354040283529160200191610e0f565b820191906000526020600020905b815481529060010190602001808311610df257829003601f168201915b5050505050905090565b6060601e8054610e28906137dc565b80601f0160208091040260200160405190810160405280929190818152602001828054610e54906137dc565b8015610ea15780601f10610e7657610100808354040283529160200191610ea1565b820191906000526020600020905b815481529060010190602001808311610e8457829003601f168201915b5050505050905090565b600b8060000154908060010154908060020154908060030154908060040154908060050154905086565b60058060000154908060010154908060020154908060030154908060040154908060050154905086565b60008060009050610f57600b6040518060c00160405290816000820154815260200160018201548152602001600282015481526020016003820154815260200160048201548152602001600582015481525050612dad565b61708042610f65919061383c565b1115610f745760019050610f79565b600090505b8091505090565b600060206000838152602001908152602001600020600201549050919050565b60285481565b6060806060602060006001815260200190815260200160002060030160206000600281526020019081526020016000206003016020600060038152602001908152602001600020600301828054610ffc906137dc565b80601f0160208091040260200160405190810160405280929190818152602001828054611028906137dc565b80156110755780601f1061104a57610100808354040283529160200191611075565b820191906000526020600020905b81548152906001019060200180831161105857829003601f168201915b50505050509250818054611088906137dc565b80601f01602080910402602001604051908101604052809291908181526020018280546110b4906137dc565b80156111015780601f106110d657610100808354040283529160200191611101565b820191906000526020600020905b8154815290600101906020018083116110e457829003601f168201915b50505050509150808054611114906137dc565b80601f0160208091040260200160405190810160405280929190818152602001828054611140906137dc565b801561118d5780601f106111625761010080835404028352916020019161118d565b820191906000526020600020905b81548152906001019060200180831161117057829003601f168201915b50505050509050925092509250909192565b601f80546111ac906137dc565b80601f01602080910402602001604051908101604052809291908181526020018280546111d8906137dc565b80156112255780601f106111fa57610100808354040283529160200191611225565b820191906000526020600020905b81548152906001019060200180831161120857829003601f168201915b505050505081565b6001602160003373ffffffffffffffffffffffffffffffffffffffff1673ffffffffffffffffffffffffffffffffffffffff16815260200190815260200160002054146112af576040517f08c379a00000000000000000000000000000000000000000000000000000000081526004016112a6906138de565b60405180910390fd5b6001602260003373ffffffffffffffffffffffffffffffffffffffff1673ffffffffffffffffffffffffffffffffffffffff1681526020019081526020016000205403611331576040517f08c379a00000000000000000000000000000000000000000000000000000000081526004016113289061394a565b60405180910390fd5b61138260116040518060c00160405290816000820154815260200160018201548152602001600282015481526020016003820154815260200160048201548152602001600582015481525050612dad565b617080602754611392919061383c565b116113d2576040517f08c379a00000000000000000000000000000000000000000000000000000000081526004016113c9906139b6565b60405180910390fd5b61142360176040518060c00160405290816000820154815260200160018201548152602001600282015481526020016003820154815260200160048201548152602001600582015481525050612dad565b617080602754611433919061383c565b10611473576040517f08c379a000000000000000000000000000000000000000000000000000000000815260040161146a90613a22565b60405180910390fd5b6001602260003373ffffffffffffffffffffffffffffffffffffffff1673ffffffffffffffffffffffffffffffffffffffff1681526020019081526020016000208190555033602d60006101000a81548173ffffffffffffffffffffffffffffffffffffffff021916908373ffffffffffffffffffffffffffffffffffffffff16021790555080602560003373ffffffffffffffffffffffffffffffffffffffff1673ffffffffffffffffffffffffffffffffffffffff16815260200190815260200160002090816115459190613bee565b50600115156116ea61161d602560003373ffffffffffffffffffffffffffffffffffffffff1673ffffffffffffffffffffffffffffffffffffffff168152602001908152602001600020805461159a906137dc565b80601f01602080910402602001604051908101604052809291908181526020018280546115c6906137dc565b80156116135780601f106115e857610100808354040283529160200191611613565b820191906000526020600020905b8154815290600101906020018083116115f657829003601f168201915b5050505050611caf565b602460003373ffffffffffffffffffffffffffffffffffffffff1673ffffffffffffffffffffffffffffffffffffffff1681526020019081526020016000208054611667906137dc565b80601f0160208091040260200160405190810160405280929190818152602001828054611693906137dc565b80156116e05780601f106116b5576101008083540402835291602001916116e0565b820191906000526020600020905b8154815290600101906020018083116116c357829003601f168201915b5050505050612251565b15150361179d576026602560003373ffffffffffffffffffffffffffffffffffffffff1673ffffffffffffffffffffffffffffffffffffffff1681526020019081526020016000209080600181540180825580915050600190039060005260206000200160009091909190915090816117639190613ceb565b507f560213e7662983a7764d2b6d6b03454bb716b9227f45e25e4ff45948b07347b060056040516117949190613e96565b60405180910390a15b7f26aaa12d2ac51334f2a0f54ee45add899f031d9163d6c3254931cb616a6ddfd660046040516117cd9190613ec4565b60405180910390a150565b6060600060206000602a548152602001908152602001600020600101602b54818054611803906137dc565b80601f016020809104026020016040519081016040528092919081815260200182805461182f906137dc565b801561187c5780601f106118515761010080835404028352916020019161187c565b820191906000526020600020905b81548152906001019060200180831161185f57829003601f168201915b50505050509150915091509091565b606061189682612f09565b6118a3608084901b612f09565b6040516020016118b4929190613f6a565b6040516020818303038152906040529050919050565b6060602682815481106118e0576118df613fa1565b5b9060005260206000200180546118f5906137dc565b80601f0160208091040260200160405190810160405280929190818152602001828054611921906137dc565b801561196e5780601f106119435761010080835404028352916020019161196e565b820191906000526020600020905b81548152906001019060200180831161195157829003601f168201915b50505050509050919050565b600080600090506119d260176040518060c00160405290816000820154815260200160018201548152602001600282015481526020016003820154815260200160048201548152602001600582015481525050612dad565b617080426119e0919061383c565b11156119ef57600190506119f4565b600090505b8091505090565b600080600080600080601160000154601160010154601160020154601160030154601160040154601160050154955095509550955095509550909192939495565b81602a8190555080602b819055505050565b602a5481565b606060206000602360003373ffffffffffffffffffffffffffffffffffffffff1673ffffffffffffffffffffffffffffffffffffffff1681526020019081526020016000205481526020019081526020016000206001018054611ab6906137dc565b80601f0160208091040260200160405190810160405280929190818152602001828054611ae2906137dc565b8015611b2f5780601f10611b0457610100808354040283529160200191611b2f565b820191906000526020600020905b815481529060010190602001808311611b1257829003601f168201915b5050505050905090565b6000602954905090565b602c5481565b601d8054611b56906137dc565b80601f0160208091040260200160405190810160405280929190818152602001828054611b82906137dc565b8015611bcf5780601f10611ba457610100808354040283529160200191611bcf565b820191906000526020600020905b815481529060010190602001808311611bb257829003601f168201915b505050505081565b6060602060008381526020019081526020016000206001018054611bfa906137dc565b80601f0160208091040260200160405190810160405280929190818152602001828054611c26906137dc565b8015611c735780601f10611c4857610100808354040283529160200191611c73565b820191906000526020600020905b815481529060010190602001808311611c5657829003601f168201915b50505050509050919050565b60295481565b60178060000154908060010154908060020154908060030154908060040154908060050154905086565b6060611d28600283604051602001611cc79190614001565b604051602081830303815290604052604051611ce3919061405f565b602060405180830381855afa158015611d00573d6000803e3d6000fd5b5050506040513d601f19601f82011682018060405250810190611d23919061408b565b61188b565b9050919050565b80602f9081611d3e9190613bee565b507f366f1ed101f7f65716927817f10baae8fbeeaef4d5399513570c73511380200a6006604051611d6f9190614104565b60405180910390a150565b60008060009050611dd260056040518060c00160405290816000820154815260200160018201548152602001600282015481526020016003820154815260200160048201548152602001600582015481525050612dad565b61708042611de0919061383c565b1015611def5760019050611df4565b600090505b8091505090565b6060806060602060006001815260200190815260200160002060010160206000600281526020019081526020016000206001016020600060038152602001908152602001600020600101828054611e51906137dc565b80601f0160208091040260200160405190810160405280929190818152602001828054611e7d906137dc565b8015611eca5780601f10611e9f57610100808354040283529160200191611eca565b820191906000526020600020905b815481529060010190602001808311611ead57829003601f168201915b50505050509250818054611edd906137dc565b80601f0160208091040260200160405190810160405280929190818152602001828054611f09906137dc565b8015611f565780601f10611f2b57610100808354040283529160200191611f56565b820191906000526020600020905b815481529060010190602001808311611f3957829003601f168201915b50505050509150808054611f69906137dc565b80601f0160208091040260200160405190810160405280929190818152602001828054611f95906137dc565b8015611fe25780601f10611fb757610100808354040283529160200191611fe2565b820191906000526020600020905b815481529060010190602001808311611fc557829003601f168201915b50505050509050925092509250909192565b60246020528060005260406000206000915090508054612013906137dc565b80601f016020809104026020016040519081016040528092919081815260200182805461203f906137dc565b801561208c5780601f106120615761010080835404028352916020019161208c565b820191906000526020600020905b81548152906001019060200180831161206f57829003601f168201915b505050505081565b602560205280600052604060002060009150905080546120b3906137dc565b80601f01602080910402602001604051908101604052809291908181526020018280546120df906137dc565b801561212c5780601f106121015761010080835404028352916020019161212c565b820191906000526020600020905b81548152906001019060200180831161210f57829003601f168201915b505050505081565b60118060000154908060010154908060020154908060030154908060040154908060050154905086565b6000602680549050905090565b6000806000806000806005600001546005600101546005600201546005600301546005600401546005800154955095509550955095509550909192939495565b601e80546121b8906137dc565b80601f01602080910402602001604051908101604052809291908181526020018280546121e4906137dc565b80156122315780601f1061220657610100808354040283529160200191612231565b820191906000526020600020905b81548152906001019060200180831161221457829003601f168201915b505050505081565b60216020528060005260406000206000915090505481565b6000816040516020016122649190614001565b604051602081830303815290604052805190602001208360405160200161228b9190614001565b60405160208183030381529060405280519060200120036122af57600190506122b4565b600090505b92915050565b600080600080600080600b60000154600b60010154600b60020154600b60030154600b60040154600b60050154955095509550955095509550909192939495565b6060601d805461230a906137dc565b80601f0160208091040260200160405190810160405280929190818152602001828054612336906137dc565b80156123835780601f1061235857610100808354040283529160200191612383565b820191906000526020600020905b81548152906001019060200180831161236657829003601f168201915b5050505050905090565b8060298190555050565b602e60009054906101000a900473ffffffffffffffffffffffffffffffffffffffff1681565b600080600080600080601760000154601760010154601760020154601760030154601760040154601760050154955095509550955095509550909192939495565b6000602260003373ffffffffffffffffffffffffffffffffffffffff1673ffffffffffffffffffffffffffffffffffffffff16815260200190815260200160002054905090565b6060602460003373ffffffffffffffffffffffffffffffffffffffff1673ffffffffffffffffffffffffffffffffffffffff1681526020019081526020016000208054612491906137dc565b80601f01602080910402602001604051908101604052809291908181526020018280546124bd906137dc565b801561250a5780601f106124df5761010080835404028352916020019161250a565b820191906000526020600020905b8154815290600101906020018083116124ed57829003601f168201915b5050505050905090565b60606020600060295481526020019081526020016000206001018054612539906137dc565b80601f0160208091040260200160405190810160405280929190818152602001828054612565906137dc565b80156125b25780601f10612587576101008083540402835291602001916125b2565b820191906000526020600020905b81548152906001019060200180831161259557829003601f168201915b5050505050905090565b600033905090565b6000806000905061261c60116040518060c00160405290816000820154815260200160018201548152602001600282015481526020016003820154815260200160048201548152602001600582015481525050612dad565b6170804261262a919061383c565b1015612639576001905061263e565b600090505b8091505090565b602b5481565b60275481565b60236020528060005260406000206000915090505481565b6000602360003373ffffffffffffffffffffffffffffffffffffffff1673ffffffffffffffffffffffffffffffffffffffff16815260200190815260200160002054905090565b602080528060005260406000206000915090508060000154908060010180546126d8906137dc565b80601f0160208091040260200160405190810160405280929190818152602001828054612704906137dc565b80156127515780601f1061272657610100808354040283529160200191612751565b820191906000526020600020905b81548152906001019060200180831161273457829003601f168201915b50505050509080600201549080600301805461276c906137dc565b80601f0160208091040260200160405190810160405280929190818152602001828054612798906137dc565b80156127e55780601f106127ba576101008083540402835291602001916127e5565b820191906000526020600020905b8154815290600101906020018083116127c857829003601f168201915b5050505050905084565b6000602160003373ffffffffffffffffffffffffffffffffffffffff1673ffffffffffffffffffffffffffffffffffffffff16815260200190815260200160002054905090565b6060602560003373ffffffffffffffffffffffffffffffffffffffff1673ffffffffffffffffffffffffffffffffffffffff1681526020019081526020016000208054612882906137dc565b80601f01602080910402602001604051908101604052809291908181526020018280546128ae906137dc565b80156128fb5780601f106128d0576101008083540402835291602001916128fb565b820191906000526020600020905b8154815290600101906020018083116128de57829003601f168201915b5050505050905090565b600060011515612aab6129de602560003373ffffffffffffffffffffffffffffffffffffffff1673ffffffffffffffffffffffffffffffffffffffff168152602001908152602001600020805461295b906137dc565b80601f0160208091040260200160405190810160405280929190818152602001828054612987906137dc565b80156129d45780601f106129a9576101008083540402835291602001916129d4565b820191906000526020600020905b8154815290600101906020018083116129b757829003601f168201915b5050505050611caf565b602460003373ffffffffffffffffffffffffffffffffffffffff1673ffffffffffffffffffffffffffffffffffffffff1681526020019081526020016000208054612a28906137dc565b80601f0160208091040260200160405190810160405280929190818152602001828054612a54906137dc565b8015612aa15780601f10612a7657610100808354040283529160200191612aa1565b820191906000526020600020905b815481529060010190602001808311612a8457829003601f168201915b5050505050612251565b151503612abb5760019050612ac0565b600090505b90565b6001602160003373ffffffffffffffffffffffffffffffffffffffff1673ffffffffffffffffffffffffffffffffffffffff1681526020019081526020016000205403612b45576040517f08c379a0000000000000000000000000000000000000000000000000000000008152600401612b3c9061417e565b60405180910390fd5b612b9660056040518060c00160405290816000820154815260200160018201548152602001600282015481526020016003820154815260200160048201548152602001600582015481525050612dad565b617080602754612ba6919061383c565b11612be6576040517f08c379a0000000000000000000000000000000000000000000000000000000008152600401612bdd906141ea565b60405180910390fd5b612c37600b6040518060c00160405290816000820154815260200160018201548152602001600282015481526020016003820154815260200160048201548152602001600582015481525050612dad565b617080602754612c47919061383c565b10612c87576040517f08c379a0000000000000000000000000000000000000000000000000000000008152600401612c7e90614256565b60405180910390fd5b6001602160003373ffffffffffffffffffffffffffffffffffffffff1673ffffffffffffffffffffffffffffffffffffffff16815260200190815260200160002081905550602c6000815480929190612cdf90614276565b919050555033602e60006101000a81548173ffffffffffffffffffffffffffffffffffffffff021916908373ffffffffffffffffffffffffffffffffffffffff16021790555080602460003373ffffffffffffffffffffffffffffffffffffffff1673ffffffffffffffffffffffffffffffffffffffff1681526020019081526020016000209081612d719190613bee565b507f26aaa12d2ac51334f2a0f54ee45add899f031d9163d6c3254931cb616a6ddfd66003604051612da2919061430a565b60405180910390a150565b6000806101908360000151612dc29190614367565b60648460000151612dd39190614367565b60048560000151612de49190614367565b61016d60018760000151612df89190614398565b612e0291906143cc565b612e0c919061383c565b612e169190614398565b612e20919061383c565b90506000603b601e600c60028760200151612e3b9190614398565b61016f612e4891906143cc565b612e529190614367565b612e5c9190614398565b612e66919061383c565b9050600060018560400151612e7b9190614398565b90506000620af93a828486612e90919061383c565b612e9a919061383c565b612ea49190614398565b905060008660a00151603c8860800151603c8a60600151601887612ec891906143cc565b612ed2919061383c565b612edc91906143cc565b612ee6919061383c565b612ef091906143cc565b612efa919061383c565b90508095505050505050919050565b6000604077ffffffffffffffff0000000000000000000000000000000060001b836fffffffffffffffffffffffffffffffff191616901c7fffffffffffffffff00000000000000000000000000000000000000000000000060001b836fffffffffffffffffffffffffffffffff19161617905060207bffffffff000000000000000000000000ffffffff000000000000000060001b8216901c7fffffffff000000000000000000000000ffffffff00000000000000000000000060001b821617905060107dffff000000000000ffff000000000000ffff000000000000ffff0000000060001b8216901c7fffff000000000000ffff000000000000ffff000000000000ffff00000000000060001b821617905060087eff000000ff000000ff000000ff000000ff000000ff000000ff000000ff000060001b8216901c7fff000000ff000000ff000000ff000000ff000000ff000000ff000000ff00000060001b821617905060087f0f000f000f000f000f000f000f000f000f000f000f000f000f000f000f000f0060001b8216901c60047ff000f000f000f000f000f000f000f000f000f000f000f000f000f000f000f00060001b8316901c17905060077f0f0f0f0f0f0f0f0f0f0f0f0f0f0f0f0f0f0f0f0f0f0f0f0f0f0f0f0f0f0f0f0f60047f06060606060606060606060606060606060606060606060606060606060606068460001c613119919061383c565b901c1661312691906143cc565b8160001c7f3030303030303030303030303030303030303030303030303030303030303030613155919061383c565b61315f919061383c565b60001b9050919050565b6000604051905090565b600080fd5b600080fd5b600073ffffffffffffffffffffffffffffffffffffffff82169050919050565b60006131a88261317d565b9050919050565b6131b88161319d565b81146131c357600080fd5b50565b6000813590506131d5816131af565b92915050565b6000602082840312156131f1576131f0613173565b5b60006131ff848285016131c6565b91505092915050565b6000819050919050565b61321b81613208565b82525050565b60006020820190506132366000830184613212565b92915050565b6132458161319d565b82525050565b6000602082019050613260600083018461323c565b92915050565b6000819050919050565b61327981613266565b82525050565b600081519050919050565b600082825260208201905092915050565b60005b838110156132b957808201518184015260208101905061329e565b838111156132c8576000848401525b50505050565b6000601f19601f8301169050919050565b60006132ea8261327f565b6132f4818561328a565b935061330481856020860161329b565b61330d816132ce565b840191505092915050565b600060808201905061332d6000830187613270565b818103602083015261333f81866132df565b905061334e6040830185613270565b818103606083015261336081846132df565b905095945050505050565b6000602082019050818103600083015261338581846132df565b905092915050565b600060c0820190506133a26000830189613270565b6133af6020830188613270565b6133bc6040830187613270565b6133c96060830186613270565b6133d66080830185613270565b6133e360a0830184613270565b979650505050505050565b6133f781613266565b811461340257600080fd5b50565b600081359050613414816133ee565b92915050565b6000602082840312156134305761342f613173565b5b600061343e84828501613405565b91505092915050565b600060208201905061345c6000830184613270565b92915050565b6000606082019050818103600083015261347c81866132df565b9050818103602083015261349081856132df565b905081810360408301526134a481846132df565b9050949350505050565b600080fd5b600080fd5b7f4e487b7100000000000000000000000000000000000000000000000000000000600052604160045260246000fd5b6134f0826132ce565b810181811067ffffffffffffffff8211171561350f5761350e6134b8565b5b80604052505050565b6000613522613169565b905061352e82826134e7565b919050565b600067ffffffffffffffff82111561354e5761354d6134b8565b5b613557826132ce565b9050602081019050919050565b82818337600083830152505050565b600061358661358184613533565b613518565b9050828152602081018484840111156135a2576135a16134b3565b5b6135ad848285613564565b509392505050565b600082601f8301126135ca576135c96134ae565b5b81356135da848260208601613573565b91505092915050565b6000602082840312156135f9576135f8613173565b5b600082013567ffffffffffffffff81111561361757613616613178565b5b613623848285016135b5565b91505092915050565b6000604082019050818103600083015261364681856132df565b90506136556020830184613270565b9392505050565b6000819050919050565b61366f8161365c565b811461367a57600080fd5b50565b60008135905061368c81613666565b92915050565b6000602082840312156136a8576136a7613173565b5b60006136b68482850161367d565b91505092915050565b600080604083850312156136d6576136d5613173565b5b60006136e485828601613405565b92505060206136f585828601613405565b9150509250929050565b6000806040838503121561371657613715613173565b5b600083013567ffffffffffffffff81111561373457613733613178565b5b613740858286016135b5565b925050602083013567ffffffffffffffff81111561376157613760613178565b5b61376d858286016135b5565b9150509250929050565b60008115159050919050565b61378c81613777565b82525050565b60006020820190506137a76000830184613783565b92915050565b7f4e487b7100000000000000000000000000000000000000000000000000000000600052602260045260246000fd5b600060028204905060018216806137f457607f821691505b602082108103613807576138066137ad565b5b50919050565b7f4e487b7100000000000000000000000000000000000000000000000000000000600052601160045260246000fd5b600061384782613266565b915061385283613266565b9250827fffffffffffffffffffffffffffffffffffffffffffffffffffffffffffffffff038211156138875761388661380d565b5b828201905092915050565b7f686173277420766f746564000000000000000000000000000000000000000000600082015250565b60006138c8600b8361328a565b91506138d382613892565b602082019050919050565b600060208201905081810360008301526138f7816138bb565b9050919050565b7f686173207265766f746564000000000000000000000000000000000000000000600082015250565b6000613934600b8361328a565b915061393f826138fe565b602082019050919050565b6000602082019050818103600083015261396381613927565b9050919050565b7f6e6f74207265766f74696e672074696d65207965740000000000000000000000600082015250565b60006139a060158361328a565b91506139ab8261396a565b602082019050919050565b600060208201905081810360008301526139cf81613993565b9050919050565b7f657863656564207265766f74696e672074696d65000000000000000000000000600082015250565b6000613a0c60148361328a565b9150613a17826139d6565b602082019050919050565b60006020820190508181036000830152613a3b816139ff565b9050919050565b60008190508160005260206000209050919050565b60006020601f8301049050919050565b600082821b905092915050565b600060088302613aa47fffffffffffffffffffffffffffffffffffffffffffffffffffffffffffffffff82613a67565b613aae8683613a67565b95508019841693508086168417925050509392505050565b6000819050919050565b6000613aeb613ae6613ae184613266565b613ac6565b613266565b9050919050565b6000819050919050565b613b0583613ad0565b613b19613b1182613af2565b848454613a74565b825550505050565b600090565b613b2e613b21565b613b39818484613afc565b505050565b5b81811015613b5d57613b52600082613b26565b600181019050613b3f565b5050565b601f821115613ba257613b7381613a42565b613b7c84613a57565b81016020851015613b8b578190505b613b9f613b9785613a57565b830182613b3e565b50505b505050565b600082821c905092915050565b6000613bc560001984600802613ba7565b1980831691505092915050565b6000613bde8383613bb4565b9150826002028217905092915050565b613bf78261327f565b67ffffffffffffffff811115613c1057613c0f6134b8565b5b613c1a82546137dc565b613c25828285613b61565b600060209050601f831160018114613c585760008415613c46578287015190505b613c508582613bd2565b865550613cb8565b601f198416613c6686613a42565b60005b82811015613c8e57848901518255600182019150602085019450602081019050613c69565b86831015613cab5784890151613ca7601f891682613bb4565b8355505b6001600288020188555050505b505050505050565b600081549050613ccf816137dc565b9050919050565b60008190508160005260206000209050919050565b818103613cf9575050613dd1565b613d0282613cc0565b67ffffffffffffffff811115613d1b57613d1a6134b8565b5b613d2582546137dc565b613d30828285613b61565b6000601f831160018114613d5f5760008415613d4d578287015490505b613d578582613bd2565b865550613dca565b601f198416613d6d87613cd6565b9650613d7886613a42565b60005b82811015613da057848901548255600182019150600185019450602081019050613d7b565b86831015613dbd5784890154613db9601f891682613bb4565b8355505b6001600288020188555050505b5050505050505b565b7f4e487b7100000000000000000000000000000000000000000000000000000000600052602160045260246000fd5b60078110613e1357613e12613dd3565b5b50565b6000819050613e2482613e02565b919050565b6000613e3482613e16565b9050919050565b613e4481613e29565b82525050565b7f76616c69642062616c6c6f740000000000000000000000000000000000000000600082015250565b6000613e80600c8361328a565b9150613e8b82613e4a565b602082019050919050565b6000604082019050613eab6000830184613e3b565b8181036020830152613ebc81613e73565b905092915050565b6000604082019050613ed96000830184613e3b565b8181036020830152613eea81613927565b905092915050565b600081905092915050565b7f3078000000000000000000000000000000000000000000000000000000000000600082015250565b6000613f33600283613ef2565b9150613f3e82613efd565b600282019050919050565b6000819050919050565b613f64613f5f8261365c565b613f49565b82525050565b6000613f7582613f26565b9150613f818285613f53565b602082019150613f918284613f53565b6020820191508190509392505050565b7f4e487b7100000000000000000000000000000000000000000000000000000000600052603260045260246000fd5b6000613fdb8261327f565b613fe58185613ef2565b9350613ff581856020860161329b565b80840191505092915050565b600061400d8284613fd0565b915081905092915050565b600081519050919050565b600081905092915050565b600061403982614018565b6140438185614023565b935061405381856020860161329b565b80840191505092915050565b600061406b828461402e565b915081905092915050565b60008151905061408581613666565b92915050565b6000602082840312156140a1576140a0613173565b5b60006140af84828501614076565b91505092915050565b7f536574205072697661744b657900000000000000000000000000000000000000600082015250565b60006140ee600d8361328a565b91506140f9826140b8565b602082019050919050565b60006040820190506141196000830184613e3b565b818103602083015261412a816140e1565b905092915050565b7f68617320766f7465640000000000000000000000000000000000000000000000600082015250565b600061416860098361328a565b915061417382614132565b602082019050919050565b600060208201905081810360008301526141978161415b565b9050919050565b7f6e6f7420766f74696e672074696d652079657400000000000000000000000000600082015250565b60006141d460138361328a565b91506141df8261419e565b602082019050919050565b60006020820190508181036000830152614203816141c7565b9050919050565b7f65786365656420766f74696e672074696d650000000000000000000000000000600082015250565b600061424060128361328a565b915061424b8261420a565b602082019050919050565b6000602082019050818103600083015261426f81614233565b9050919050565b600061428182613266565b91507fffffffffffffffffffffffffffffffffffffffffffffffffffffffffffffffff82036142b3576142b261380d565b5b600182019050919050565b7f566f746564000000000000000000000000000000000000000000000000000000600082015250565b60006142f460058361328a565b91506142ff826142be565b602082019050919050565b600060408201905061431f6000830184613e3b565b8181036020830152614330816142e7565b905092915050565b7f4e487b7100000000000000000000000000000000000000000000000000000000600052601260045260246000fd5b600061437282613266565b915061437d83613266565b92508261438d5761438c614338565b5b828204905092915050565b60006143a382613266565b91506143ae83613266565b9250828210156143c1576143c061380d565b5b828203905092915050565b60006143d782613266565b91506143e283613266565b9250817fffffffffffffffffffffffffffffffffffffffffffffffffffffffffffffffff048311821515161561441b5761441a61380d565b5b82820290509291505056fea26469706673582212204c999dc7e0a0cdb3c273c9399ce55caf1ef883a2f403fd25c842ea124e55518064736f6c634300080f0033",
  "immutableReferences": {},
  "source": "//SPDX-License-Identifier: MIT\r\npragma solidity ^0.8.14;\r\nimport{ voteBase } from \"./voteBase_ver1.sol\";\r\n\r\ncontract init_Voting is voteBase{\r\n    // Store accounts that have voted/revoted\r\n    mapping(address => int) public voters;\r\n    mapping(address => int) public revoters;\r\n    mapping(address => int) public votefor;\r\n    mapping(address => string) public voteciphertext;\r\n    mapping(address => string) public revoteciphertext;\r\n    string [] validballot ;\r\n\r\n\r\n    uint public CurrentTime = block.timestamp;\r\n    uint public candidatesCount;\r\n    uint public number;\r\n    uint public max;\r\n    uint public maxnum;\r\n    uint public totalnum;\r\n    address public revaddress;\r\n    address public senaddress;\r\n    string _privatekey;\r\n\r\n    constructor(string memory _publickey,string memory _eventName,string[] memory _candidateInfo,uint[] memory _init, string memory _info, string[] memory _resume)voteBase(_publickey, _eventName,_candidateInfo,_init,_info,_resume){\r\n        candidatesCount = _candidateInfo.length;\r\n        for(uint i = 1;i<=_candidateInfo.length;i++){\r\n            candidatesList[i] = Candidate(i,_candidateInfo[i-1],0,_resume[i-1]);\r\n            emit done(DoneFlag.setCandidates, \"Set Candidates\");\r\n        }\r\n    }\r\n    function getPublickey() public view returns(string memory){\r\n        return(publickey);\r\n    }\r\n    function getEventName() public view returns(string memory){\r\n        return(eventName);\r\n    }\r\n    function getvote() public view returns(int){\r\n        return voters[msg.sender];\r\n    }\r\n    function getrevote() public view returns(int){\r\n        return revoters[msg.sender];\r\n    }\r\n    function getvotefor() public view returns(int){\r\n        return votefor[msg.sender];\r\n    }\r\n    function getVoteCiphertext() public view returns(string memory){\r\n        return voteciphertext[msg.sender];\r\n    }\r\n\r\n    function getsender() public view returns(address){\r\n        return msg.sender;\r\n    }\r\n\r\n    function getRevoteCiphertext() public view returns(string memory){\r\n        return revoteciphertext[msg.sender];\r\n    }\r\n    function getPrivatekey(string memory key) public{\r\n         _privatekey=key;\r\n          emit privateKey(DoneFlag.privatekey, \"Set PrivatKey\");\r\n    }\r\n    function getpkey() public view returns(string memory){\r\n        return _privatekey;\r\n    }\r\n    function getvoteforname() public view returns(string memory){\r\n        return candidatesList[uint(votefor[msg.sender])].name;\r\n    }\r\n    function gettimealready() public view returns(int){\r\n        int timea=0;\r\n        if(block.timestamp+28800<transtime(votingStartTime)){\r\n            timea=1;\r\n        }\r\n        else{\r\n            timea=0;\r\n        }\r\n        return timea;\r\n    }\r\n    function gettimeend() public view returns(int){\r\n        int timeb=0;\r\n        if(block.timestamp+28800>transtime(votingEndTime)){\r\n            timeb=1;\r\n        }\r\n        else{\r\n            timeb=0;\r\n        }\r\n        return timeb;\r\n    }\r\n    function regettimealready() public view returns(int){\r\n        int timec=0;\r\n        if(block.timestamp+28800<transtime(revotingStartTime)){\r\n            timec=1;\r\n        }\r\n        else{\r\n            timec=0;\r\n        }\r\n        return timec;\r\n    }\r\n    function regettimeend() public view returns(int){\r\n        int timed=0;\r\n        if(block.timestamp+28800>transtime(revotingEndTime)){\r\n            timed=1;\r\n        }\r\n        else{\r\n            timed=0;\r\n        }\r\n        return timed;\r\n    }\r\n\r\n    //function getsender() public view returns(address){\r\n       // return senaddress;\r\n    //}\r\n     function getTotalVotes(uint _candidateId) view public returns(uint) {\r\n\r\n        return candidatesList[_candidateId].voteCount;\r\n\r\n    }\r\n    function getstartTime() public view returns(uint,uint,uint,uint,uint,uint){\r\n        return(votingStartTime.year,votingStartTime.month,votingStartTime.date,votingStartTime.hour,votingStartTime.min,votingStartTime.sec);\r\n    }\r\n    function getendTime() public view returns(uint,uint,uint,uint,uint,uint){\r\n        return(votingEndTime.year,votingEndTime.month,votingEndTime.date,votingEndTime.hour,votingEndTime.min,votingEndTime.sec);\r\n    }\r\n    function getrestartTime() public view returns(uint,uint,uint,uint,uint,uint){\r\n        return(revotingStartTime.year,revotingStartTime.month,revotingStartTime.date,revotingStartTime.hour,revotingStartTime.min,revotingStartTime.sec);\r\n    }\r\n    function getreendTime() public view returns(uint,uint,uint,uint,uint,uint){\r\n        return(revotingEndTime.year,revotingEndTime.month,revotingEndTime.date,revotingEndTime.hour,revotingEndTime.min,revotingEndTime.sec);\r\n    }\r\n    function getCandidatesName() public view returns(string memory,string memory,string memory){\r\n        return (candidatesList[1].name,candidatesList[2].name,candidatesList[3].name);\r\n    }\r\n    function getinfo() public view returns(string memory){\r\n        return (info);\r\n    }\r\n    function getresume() public view returns(string memory,string memory,string memory){\r\n        return (candidatesList[1].info,candidatesList[2].info,candidatesList[3].info);\r\n    }\r\n    function getnumber(uint num) public {\r\n        number = num;\r\n    }\r\n    function tomax(uint m,uint mt) public {\r\n        max = m;\r\n        maxnum= mt;\r\n    }\r\n    function getresult() public view returns(string memory,uint){\r\n\r\n        return (candidatesList[max].name,maxnum);\r\n    }\r\n    function getnum() public view returns(uint){\r\n        return (number);\r\n    }\r\n    function getname() public view returns(string memory){\r\n        return candidatesList[number].name;\r\n    }\r\n    function getname1(uint num) public view returns(string memory){\r\n        return candidatesList[num].name;\r\n    }\r\n    function gettotalpeo() public view returns(uint){\r\n        return validballot.length;\r\n    }\r\n\r\n    function callsha256(string memory c) public pure returns(string memory){\r\n      return toHex(sha256(abi.encodePacked(c)));\r\n   }\r\n\r\n    function getvalid(uint i)public view returns(string memory){\r\n            return validballot[i];\r\n    }\r\n\r\nfunction toHex16 (bytes16 data) internal pure returns (bytes32 result) {\r\n    result = bytes32 (data) & 0xFFFFFFFFFFFFFFFF000000000000000000000000000000000000000000000000 |\r\n          (bytes32 (data) & 0x0000000000000000FFFFFFFFFFFFFFFF00000000000000000000000000000000) >> 64;\r\n    result = result & 0xFFFFFFFF000000000000000000000000FFFFFFFF000000000000000000000000 |\r\n          (result & 0x00000000FFFFFFFF000000000000000000000000FFFFFFFF0000000000000000) >> 32;\r\n    result = result & 0xFFFF000000000000FFFF000000000000FFFF000000000000FFFF000000000000 |\r\n          (result & 0x0000FFFF000000000000FFFF000000000000FFFF000000000000FFFF00000000) >> 16;\r\n    result = result & 0xFF000000FF000000FF000000FF000000FF000000FF000000FF000000FF000000 |\r\n          (result & 0x00FF000000FF000000FF000000FF000000FF000000FF000000FF000000FF0000) >> 8;\r\n    result = (result & 0xF000F000F000F000F000F000F000F000F000F000F000F000F000F000F000F000) >> 4 |\r\n          (result & 0x0F000F000F000F000F000F000F000F000F000F000F000F000F000F000F000F00) >> 8;\r\n    result = bytes32 (0x3030303030303030303030303030303030303030303030303030303030303030 +\r\n           uint256 (result) +\r\n           (uint256 (result) + 0x0606060606060606060606060606060606060606060606060606060606060606 >> 4 &\r\n           0x0F0F0F0F0F0F0F0F0F0F0F0F0F0F0F0F0F0F0F0F0F0F0F0F0F0F0F0F0F0F0F0F) * 7);\r\n}\r\n\r\nfunction toHex (bytes32 data) public pure returns (string memory) {\r\n    return string (abi.encodePacked (\"0x\", toHex16 (bytes16 (data)), toHex16 (bytes16 (data << 128))));\r\n}\r\n    function equal1() public view returns(bool){\r\n        if (hashCompareInternal1(callsha256(revoteciphertext[msg.sender]), voteciphertext[msg.sender])==true){\r\n            return true;\r\n        }\r\n        return false;\r\n    }\r\nfunction hashCompareInternal1(string memory a, string memory b) public pure returns (bool) {\r\n        if (keccak256(abi.encodePacked(a)) == keccak256(abi.encodePacked(b))){\r\n            return true;\r\n        }\r\n        else{\r\n            return false;\r\n        }\r\n    }\r\n    function transtime(time memory x)internal pure returns(uint){\r\n        uint  Y = (x.year - 1) * 365 + x.year / 4 - x.year / 100 + x.year / 400;\r\n        uint  M = 367 * (x.month-2) / 12 - 30 + 59;\r\n        uint  D = x.date - 1;\r\n        uint  X = Y + M + D - 719162;\r\n        uint  T = ((X * 24 + x.hour) * 60 + x.min) * 60 + x.sec;\r\n        return T;\r\n    }\r\n    function vote (string memory _ciphertext) public {\r\n        // require that they haven't voted before\r\n        require(voters[msg.sender]!=1, \"has voted\");\r\n\r\n        require (CurrentTime+28800>transtime(votingStartTime), \"not voting time yet\");\r\n\r\n        require (CurrentTime+28800<transtime(votingEndTime), \"exceed voting time\");\r\n\r\n        // require a valid candidate\r\n        //require(number > 0 && number <= candidatesCount, \"candidate invalid\");\r\n\r\n        // record that voter has voted\r\n        voters[msg.sender] = 1;\r\n        totalnum++;\r\n        senaddress= msg.sender;\r\n        // update candidate vote Count\r\n        //candidatesList[number].voteCount ++;\r\n        //votefor[msg.sender]=int(number);\r\n        voteciphertext[msg.sender]=_ciphertext;\r\n        // trigger voted event \r\n        // emit votedEvent(number);\r\n        emit done(DoneFlag.hasVoted, \"Voted\");\r\n    }\r\n\r\nfunction revote (string memory _reciphertext) public {\r\n\r\n        // require that they have voted before\r\n        require(voters[msg.sender]==1, \"has't voted\");\r\n         // require that they haven't revoted before\r\n        require(revoters[msg.sender]!=1, \"has revoted\");\r\n        require (CurrentTime+28800>transtime(revotingStartTime), \"not revoting time yet\");\r\n        require (CurrentTime+28800<transtime(revotingEndTime),\"exceed revoting time\");\r\n\r\n        // record that voter has revoted\r\n\r\n        revoters[msg.sender] = 1;\r\n        revaddress= msg.sender;\r\n        revoteciphertext[msg.sender]=_reciphertext;\r\n        if (hashCompareInternal1(callsha256(revoteciphertext[msg.sender]), voteciphertext[msg.sender])==true){\r\n            validballot.push(revoteciphertext[msg.sender]);\r\n            emit valid(DoneFlag.validBallot,\"valid ballot\");\r\n        }\r\n        emit done(DoneFlag.hasRevoted, \"has revoted\");\r\n    }\r\n}\r\n",
  "sourcePath": "C:\\Users\\user\\Desktop\\vote_test\\contracts\\init_Voting.sol",
  "compiler": {
    "name": "solc",
    "version": "0.8.15+commit.e14f2714.Emscripten.clang"
  },
  "schemaVersion": "3.4.8",
  "updatedAt": "2022-12-16T07:37:49.810Z",
  "networkType": "ethereum",
  "devdoc": {
    "kind": "dev",
    "methods": {},
    "version": 1
  },
  "userdoc": {
    "kind": "user",
    "methods": {},
    "version": 1
  }
}