{
  "contractName": "voteBase",
  "abi": [
    {
      "inputs": [
        {
          "internalType": "string",
          "name": "_publickey",
          "type": "string"
        },
        {
          "internalType": "string",
          "name": "_eventName",
          "type": "string"
        },
        {
          "internalType": "string[]",
          "name": "_candidateInfo",
          "type": "string[]"
        },
        {
          "internalType": "uint256[]",
          "name": "_init",
          "type": "uint256[]"
        },
        {
          "internalType": "string",
          "name": "_info",
          "type": "string"
        },
        {
          "internalType": "string[]",
          "name": "_resume",
          "type": "string[]"
        }
      ],
      "stateMutability": "nonpayable",
      "type": "constructor"
    },
    {
      "anonymous": false,
      "inputs": [
        {
          "indexed": false,
          "internalType": "enum voteBase.DoneFlag",
          "name": "eventCode",
          "type": "uint8"
        },
        {
          "indexed": false,
          "internalType": "string",
          "name": "message",
          "type": "string"
        }
      ],
      "name": "done",
      "type": "event"
    },
    {
      "anonymous": false,
      "inputs": [
        {
          "indexed": false,
          "internalType": "enum voteBase.DoneFlag",
          "name": "eventCode",
          "type": "uint8"
        },
        {
          "indexed": false,
          "internalType": "string",
          "name": "message",
          "type": "string"
        }
      ],
      "name": "privateKey",
      "type": "event"
    },
    {
      "anonymous": false,
      "inputs": [
        {
          "indexed": false,
          "internalType": "enum voteBase.DoneFlag",
          "name": "eventCode",
          "type": "uint8"
        },
        {
          "indexed": false,
          "internalType": "string",
          "name": "message",
          "type": "string"
        }
      ],
      "name": "valid",
      "type": "event"
    },
    {
      "anonymous": false,
      "inputs": [
        {
          "indexed": true,
          "internalType": "uint256",
          "name": "_candidateId",
          "type": "uint256"
        }
      ],
      "name": "votedEvent",
      "type": "event"
    },
    {
      "inputs": [],
      "name": "FirstCandidates",
      "outputs": [
        {
          "internalType": "uint256",
          "name": "id",
          "type": "uint256"
        },
        {
          "internalType": "string",
          "name": "name",
          "type": "string"
        },
        {
          "internalType": "uint256",
          "name": "voteCount",
          "type": "uint256"
        },
        {
          "internalType": "string",
          "name": "info",
          "type": "string"
        }
      ],
      "stateMutability": "view",
      "type": "function"
    },
    {
      "inputs": [
        {
          "internalType": "uint256",
          "name": "",
          "type": "uint256"
        }
      ],
      "name": "candidatesList",
      "outputs": [
        {
          "internalType": "uint256",
          "name": "id",
          "type": "uint256"
        },
        {
          "internalType": "string",
          "name": "name",
          "type": "string"
        },
        {
          "internalType": "uint256",
          "name": "voteCount",
          "type": "uint256"
        },
        {
          "internalType": "string",
          "name": "info",
          "type": "string"
        }
      ],
      "stateMutability": "view",
      "type": "function"
    },
    {
      "inputs": [],
      "name": "eventName",
      "outputs": [
        {
          "internalType": "string",
          "name": "",
          "type": "string"
        }
      ],
      "stateMutability": "view",
      "type": "function"
    },
    {
      "inputs": [],
      "name": "info",
      "outputs": [
        {
          "internalType": "string",
          "name": "",
          "type": "string"
        }
      ],
      "stateMutability": "view",
      "type": "function"
    },
    {
      "inputs": [],
      "name": "publickey",
      "outputs": [
        {
          "internalType": "string",
          "name": "",
          "type": "string"
        }
      ],
      "stateMutability": "view",
      "type": "function"
    },
    {
      "inputs": [],
      "name": "revotingEndTime",
      "outputs": [
        {
          "internalType": "uint256",
          "name": "year",
          "type": "uint256"
        },
        {
          "internalType": "uint256",
          "name": "month",
          "type": "uint256"
        },
        {
          "internalType": "uint256",
          "name": "date",
          "type": "uint256"
        },
        {
          "internalType": "uint256",
          "name": "hour",
          "type": "uint256"
        },
        {
          "internalType": "uint256",
          "name": "min",
          "type": "uint256"
        },
        {
          "internalType": "uint256",
          "name": "sec",
          "type": "uint256"
        }
      ],
      "stateMutability": "view",
      "type": "function"
    },
    {
      "inputs": [],
      "name": "revotingStartTime",
      "outputs": [
        {
          "internalType": "uint256",
          "name": "year",
          "type": "uint256"
        },
        {
          "internalType": "uint256",
          "name": "month",
          "type": "uint256"
        },
        {
          "internalType": "uint256",
          "name": "date",
          "type": "uint256"
        },
        {
          "internalType": "uint256",
          "name": "hour",
          "type": "uint256"
        },
        {
          "internalType": "uint256",
          "name": "min",
          "type": "uint256"
        },
        {
          "internalType": "uint256",
          "name": "sec",
          "type": "uint256"
        }
      ],
      "stateMutability": "view",
      "type": "function"
    },
    {
      "inputs": [],
      "name": "votingEndTime",
      "outputs": [
        {
          "internalType": "uint256",
          "name": "year",
          "type": "uint256"
        },
        {
          "internalType": "uint256",
          "name": "month",
          "type": "uint256"
        },
        {
          "internalType": "uint256",
          "name": "date",
          "type": "uint256"
        },
        {
          "internalType": "uint256",
          "name": "hour",
          "type": "uint256"
        },
        {
          "internalType": "uint256",
          "name": "min",
          "type": "uint256"
        },
        {
          "internalType": "uint256",
          "name": "sec",
          "type": "uint256"
        }
      ],
      "stateMutability": "view",
      "type": "function"
    },
    {
      "inputs": [],
      "name": "votingStartTime",
      "outputs": [
        {
          "internalType": "uint256",
          "name": "year",
          "type": "uint256"
        },
        {
          "internalType": "uint256",
          "name": "month",
          "type": "uint256"
        },
        {
          "internalType": "uint256",
          "name": "date",
          "type": "uint256"
        },
        {
          "internalType": "uint256",
          "name": "hour",
          "type": "uint256"
        },
        {
          "internalType": "uint256",
          "name": "min",
          "type": "uint256"
        },
        {
          "internalType": "uint256",
          "name": "sec",
          "type": "uint256"
        }
      ],
      "stateMutability": "view",
      "type": "function"
    }
  ],
  "bytecode": "0x60806040523480156200001157600080fd5b506040516200175d3803806200175d833981810160405281019062000037919062000993565b336000806101000a81548173ffffffffffffffffffffffffffffffffffffffff021916908373ffffffffffffffffffffffffffffffffffffffff16021790555084601d908162000088919062000d2a565b5085601e90816200009a919062000d2a565b5081601f9081620000ac919062000d2a565b5060405180608001604052806001815260200185600081518110620000d657620000d562000e11565b5b60200260200101518152602001600081526020018260008151811062000101576200010062000e11565b5b602002602001015181525060016000820151816000015560208201518160010190816200012f919062000d2a565b5060408201518160020155606082015181600301908162000151919062000d2a565b509050506040518060c001604052808460008151811062000177576200017662000e11565b5b60200260200101518152602001846001815181106200019b576200019a62000e11565b5b6020026020010151815260200184600281518110620001bf57620001be62000e11565b5b6020026020010151815260200184600381518110620001e357620001e262000e11565b5b602002602001015181526020018460048151811062000207576200020662000e11565b5b60200260200101518152602001846005815181106200022b576200022a62000e11565b5b60200260200101518152506005600082015181600001556020820151816001015560408201518160020155606082015181600301556080820151816004015560a082015181600501559050506040518060c001604052808460008151811062000299576200029862000e11565b5b6020026020010151815260200184600681518110620002bd57620002bc62000e11565b5b6020026020010151815260200184600781518110620002e157620002e062000e11565b5b602002602001015181526020018460088151811062000305576200030462000e11565b5b602002602001015181526020018460098151811062000329576200032862000e11565b5b6020026020010151815260200184600a815181106200034d576200034c62000e11565b5b6020026020010151815250600b600082015181600001556020820151816001015560408201518160020155606082015181600301556080820151816004015560a082015181600501559050506040518060c0016040528084600081518110620003bb57620003ba62000e11565b5b6020026020010151815260200184600b81518110620003df57620003de62000e11565b5b6020026020010151815260200184600c8151811062000403576200040262000e11565b5b6020026020010151815260200184600d8151811062000427576200042662000e11565b5b6020026020010151815260200184600e815181106200044b576200044a62000e11565b5b6020026020010151815260200184600f815181106200046f576200046e62000e11565b5b60200260200101518152506011600082015181600001556020820151816001015560408201518160020155606082015181600301556080820151816004015560a082015181600501559050506040518060c0016040528084600081518110620004dd57620004dc62000e11565b5b602002602001015181526020018460108151811062000501576200050062000e11565b5b602002602001015181526020018460118151811062000525576200052462000e11565b5b602002602001015181526020018460128151811062000549576200054862000e11565b5b60200260200101518152602001846013815181106200056d576200056c62000e11565b5b602002602001015181526020018460148151811062000591576200059062000e11565b5b60200260200101518152506017600082015181600001556020820151816001015560408201518160020155606082015181600301556080820151816004015560a0820151816005015590505050505050505062000e40565b6000604051905090565b600080fd5b600080fd5b600080fd5b600080fd5b6000601f19601f8301169050919050565b7f4e487b7100000000000000000000000000000000000000000000000000000000600052604160045260246000fd5b620006528262000607565b810181811067ffffffffffffffff8211171562000674576200067362000618565b5b80604052505050565b600062000689620005e9565b905062000697828262000647565b919050565b600067ffffffffffffffff821115620006ba57620006b962000618565b5b620006c58262000607565b9050602081019050919050565b60005b83811015620006f2578082015181840152602081019050620006d5565b8381111562000702576000848401525b50505050565b60006200071f62000719846200069c565b6200067d565b9050828152602081018484840111156200073e576200073d62000602565b5b6200074b848285620006d2565b509392505050565b600082601f8301126200076b576200076a620005fd565b5b81516200077d84826020860162000708565b91505092915050565b600067ffffffffffffffff821115620007a457620007a362000618565b5b602082029050602081019050919050565b600080fd5b6000620007d1620007cb8462000786565b6200067d565b90508083825260208201905060208402830185811115620007f757620007f6620007b5565b5b835b818110156200084557805167ffffffffffffffff81111562000820576200081f620005fd565b5b8086016200082f898262000753565b85526020850194505050602081019050620007f9565b5050509392505050565b600082601f830112620008675762000866620005fd565b5b815162000879848260208601620007ba565b91505092915050565b600067ffffffffffffffff821115620008a0576200089f62000618565b5b602082029050602081019050919050565b6000819050919050565b620008c681620008b1565b8114620008d257600080fd5b50565b600081519050620008e681620008bb565b92915050565b600062000903620008fd8462000882565b6200067d565b90508083825260208201905060208402830185811115620009295762000928620007b5565b5b835b81811015620009565780620009418882620008d5565b8452602084019350506020810190506200092b565b5050509392505050565b600082601f830112620009785762000977620005fd565b5b81516200098a848260208601620008ec565b91505092915050565b60008060008060008060c08789031215620009b357620009b2620005f3565b5b600087015167ffffffffffffffff811115620009d457620009d3620005f8565b5b620009e289828a0162000753565b965050602087015167ffffffffffffffff81111562000a065762000a05620005f8565b5b62000a1489828a0162000753565b955050604087015167ffffffffffffffff81111562000a385762000a37620005f8565b5b62000a4689828a016200084f565b945050606087015167ffffffffffffffff81111562000a6a5762000a69620005f8565b5b62000a7889828a0162000960565b935050608087015167ffffffffffffffff81111562000a9c5762000a9b620005f8565b5b62000aaa89828a0162000753565b92505060a087015167ffffffffffffffff81111562000ace5762000acd620005f8565b5b62000adc89828a016200084f565b9150509295509295509295565b600081519050919050565b7f4e487b7100000000000000000000000000000000000000000000000000000000600052602260045260246000fd5b6000600282049050600182168062000b3c57607f821691505b60208210810362000b525762000b5162000af4565b5b50919050565b60008190508160005260206000209050919050565b60006020601f8301049050919050565b600082821b905092915050565b60006008830262000bbc7fffffffffffffffffffffffffffffffffffffffffffffffffffffffffffffffff8262000b7d565b62000bc8868362000b7d565b95508019841693508086168417925050509392505050565b6000819050919050565b600062000c0b62000c0562000bff84620008b1565b62000be0565b620008b1565b9050919050565b6000819050919050565b62000c278362000bea565b62000c3f62000c368262000c12565b84845462000b8a565b825550505050565b600090565b62000c5662000c47565b62000c6381848462000c1c565b505050565b5b8181101562000c8b5762000c7f60008262000c4c565b60018101905062000c69565b5050565b601f82111562000cda5762000ca48162000b58565b62000caf8462000b6d565b8101602085101562000cbf578190505b62000cd762000cce8562000b6d565b83018262000c68565b50505b505050565b600082821c905092915050565b600062000cff6000198460080262000cdf565b1980831691505092915050565b600062000d1a838362000cec565b9150826002028217905092915050565b62000d358262000ae9565b67ffffffffffffffff81111562000d515762000d5062000618565b5b62000d5d825462000b23565b62000d6a82828562000c8f565b600060209050601f83116001811462000da2576000841562000d8d578287015190505b62000d99858262000d0c565b86555062000e09565b601f19841662000db28662000b58565b60005b8281101562000ddc5784890151825560018201915060208501945060208101905062000db5565b8683101562000dfc578489015162000df8601f89168262000cec565b8355505b6001600288020188555050505b505050505050565b7f4e487b7100000000000000000000000000000000000000000000000000000000600052603260045260246000fd5b61090d8062000e506000396000f3fe608060405234801561001057600080fd5b50600436106100935760003560e01c80638043c9c0116100665780638043c9c01461011d5780638a72dd231461013b5780639ab832be1461015e578063a0f5807d14610181578063df2d5ec71461019f57610093565b80630caf270e146100985780631ea736e0146100b95780632019a608146100dc578063370158ea146100ff575b600080fd5b6100a06101d2565b6040516100b09493929190610743565b60405180910390f35b6100c1610300565b6040516100d396959493929190610796565b60405180910390f35b6100e461032a565b6040516100f696959493929190610796565b60405180910390f35b610107610354565b60405161011491906107f7565b60405180910390f35b6101256103e2565b60405161013291906107f7565b60405180910390f35b610143610470565b60405161015596959493929190610796565b60405180910390f35b61016661049a565b60405161017896959493929190610796565b60405180910390f35b6101896104c4565b60405161019691906107f7565b60405180910390f35b6101b960048036038101906101b4919061084a565b610552565b6040516101c99493929190610743565b60405180910390f35b60018060000154908060010180546101e9906108a6565b80601f0160208091040260200160405190810160405280929190818152602001828054610215906108a6565b80156102625780601f1061023757610100808354040283529160200191610262565b820191906000526020600020905b81548152906001019060200180831161024557829003601f168201915b50505050509080600201549080600301805461027d906108a6565b80601f01602080910402602001604051908101604052809291908181526020018280546102a9906108a6565b80156102f65780601f106102cb576101008083540402835291602001916102f6565b820191906000526020600020905b8154815290600101906020018083116102d957829003601f168201915b5050505050905084565b600b8060000154908060010154908060020154908060030154908060040154908060050154905086565b60058060000154908060010154908060020154908060030154908060040154908060050154905086565b601f8054610361906108a6565b80601f016020809104026020016040519081016040528092919081815260200182805461038d906108a6565b80156103da5780601f106103af576101008083540402835291602001916103da565b820191906000526020600020905b8154815290600101906020018083116103bd57829003601f168201915b505050505081565b601d80546103ef906108a6565b80601f016020809104026020016040519081016040528092919081815260200182805461041b906108a6565b80156104685780601f1061043d57610100808354040283529160200191610468565b820191906000526020600020905b81548152906001019060200180831161044b57829003601f168201915b505050505081565b60178060000154908060010154908060020154908060030154908060040154908060050154905086565b60118060000154908060010154908060020154908060030154908060040154908060050154905086565b601e80546104d1906108a6565b80601f01602080910402602001604051908101604052809291908181526020018280546104fd906108a6565b801561054a5780601f1061051f5761010080835404028352916020019161054a565b820191906000526020600020905b81548152906001019060200180831161052d57829003601f168201915b505050505081565b6020805280600052604060002060009150905080600001549080600101805461057a906108a6565b80601f01602080910402602001604051908101604052809291908181526020018280546105a6906108a6565b80156105f35780601f106105c8576101008083540402835291602001916105f3565b820191906000526020600020905b8154815290600101906020018083116105d657829003601f168201915b50505050509080600201549080600301805461060e906108a6565b80601f016020809104026020016040519081016040528092919081815260200182805461063a906108a6565b80156106875780601f1061065c57610100808354040283529160200191610687565b820191906000526020600020905b81548152906001019060200180831161066a57829003601f168201915b5050505050905084565b6000819050919050565b6106a481610691565b82525050565b600081519050919050565b600082825260208201905092915050565b60005b838110156106e45780820151818401526020810190506106c9565b838111156106f3576000848401525b50505050565b6000601f19601f8301169050919050565b6000610715826106aa565b61071f81856106b5565b935061072f8185602086016106c6565b610738816106f9565b840191505092915050565b6000608082019050610758600083018761069b565b818103602083015261076a818661070a565b9050610779604083018561069b565b818103606083015261078b818461070a565b905095945050505050565b600060c0820190506107ab600083018961069b565b6107b8602083018861069b565b6107c5604083018761069b565b6107d2606083018661069b565b6107df608083018561069b565b6107ec60a083018461069b565b979650505050505050565b60006020820190508181036000830152610811818461070a565b905092915050565b600080fd5b61082781610691565b811461083257600080fd5b50565b6000813590506108448161081e565b92915050565b6000602082840312156108605761085f610819565b5b600061086e84828501610835565b91505092915050565b7f4e487b7100000000000000000000000000000000000000000000000000000000600052602260045260246000fd5b600060028204905060018216806108be57607f821691505b6020821081036108d1576108d0610877565b5b5091905056fea2646970667358221220f8d97b5867f229ff3146d5d0639d7e0bbfe24982f4544952f20e36ac43dad7d864736f6c634300080f0033",
  "immutableReferences": {},
  "source": "//SPDX-License-Identifier: MIT\r\npragma solidity ^0.8.14;\r\ncontract voteBase {\r\n\r\n   //save CEC account\r\n    address internal CEC;\r\n\r\n    // Model a Candidate\r\n    struct Candidate {\r\n        uint id;\r\n        string name;\r\n        uint voteCount;\r\n        string info;\r\n    }\r\n    struct time{\r\n        uint year;\r\n        uint month;\r\n        uint date;\r\n        uint hour;\r\n        uint min;\r\n        uint sec;\r\n    }\r\n    //save CEC account\r\n    Candidate public FirstCandidates;\r\n    time public votingStartTime;\r\n    time public votingEndTime;\r\n    time public revotingStartTime;\r\n    time public revotingEndTime;\r\n    string public eventName;\r\n    string public publickey;\r\n    string public info;\r\n    constructor(string memory _publickey, string memory _eventName,string[] memory _candidateInfo,uint[] memory _init, string memory _info, string[] memory _resume){\r\n        CEC = msg.sender;\r\n        eventName = _eventName;\r\n        publickey = _publickey;\r\n        info=_info;\r\n        FirstCandidates = Candidate({\r\n            id:1,\r\n            name:_candidateInfo[0],\r\n            voteCount:0,\r\n            info:_resume[0]\r\n        });\r\n        votingStartTime = time({\r\n            year:_init[0],\r\n            month:_init[1],\r\n            date:_init[2],\r\n            hour:_init[3],\r\n            min:_init[4],\r\n            sec:_init[5]\r\n        });\r\n        votingEndTime = time({\r\n            year:_init[0],\r\n            month:_init[6],\r\n            date:_init[7],\r\n            hour:_init[8],\r\n            min:_init[9],\r\n            sec:_init[10]\r\n        });\r\n        revotingStartTime = time({\r\n            year:_init[0],\r\n            month:_init[11],\r\n            date:_init[12],\r\n            hour:_init[13],\r\n            min:_init[14],\r\n            sec:_init[15]\r\n        });\r\n        revotingEndTime = time({\r\n            year:_init[0],\r\n            month:_init[16],\r\n            date:_init[17],\r\n            hour:_init[18],\r\n            min:_init[19],\r\n            sec:_init[20]\r\n        });\r\n    }\r\n\r\n\r\n    mapping(uint => Candidate) public candidatesList;\r\n   // uint public candidatesCount;\r\n    modifier onlyCEC {\r\n        require(msg.sender == CEC, \"Permission denied. Please use CEC account.\");\r\n        _;\r\n    }\r\n    event valid(DoneFlag eventCode,string message);\r\n    event privateKey(DoneFlag eventCode,string message);\r\n    event done(DoneFlag eventCode, string message);\r\n    event votedEvent (\r\n        uint indexed _candidateId\r\n    );\r\n    enum DoneFlag {\r\n        setCandidates, //\r\n        setVotingDate, //\r\n        setRevotingDate, //\r\n        hasVoted,//\r\n        hasRevoted,//\r\n        validBallot,//\r\n        privatekey//\r\n    }\r\n}\r\n",
  "sourcePath": "C:\\Users\\user\\Desktop\\vote_test\\contracts\\voteBase_ver1.sol",
  "compiler": {
    "name": "solc",
    "version": "0.8.15+commit.e14f2714.Emscripten.clang"
  },
  "schemaVersion": "3.4.8",
  "updatedAt": "2022-12-16T07:37:30.673Z",
  "devdoc": {
    "kind": "dev",
    "methods": {},
    "version": 1
  },
  "userdoc": {
    "kind": "user",
    "methods": {},
    "version": 1
  }
}